S00E000053616D4435312E737265634B
S1130000C0C80020D5020000D1020000D1020000C7
S1130010D1020000D1020000D10200000000000063
S1130020000000000000000000000000D1020000F9
S1130030D102000000000000D1020000D102000043
S1130040D1020000D1020000D1020000D102000060
S1130050D1020000D1020000D1020000D102000050
S1130060D1020000D1020000D1020000D102000040
S1130070D1020000D1020000D1020000D102000030
S1130080D1020000D1020000D1020000D102000020
S1130090D1020000D1020000D1020000D102000010
S11300A0D1020000D1020000D1020000D102000000
S11300B0D1020000D1020000D1020000D1020000F0
S11300C0D1020000D1020000D1020000D1020000E0
S11300D0D1020000D1020000D1020000D1020000D0
S11300E0D1020000D1020000000000000000000066
S11300F000000000D1020000D1020000D102000083
S1130100D1020000D1020000D1020000D10200009F
S1130110D1020000D1020000D1020000D10200008F
S1130120D1020000D1020000D1020000D10200007F
S1130130D1020000D1020000D1020000D10200006F
S1130140D1020000D1020000D1020000D10200005F
S1130150D1020000D1020000D1020000D10200004F
S1130160D1020000D1020000D1020000D10200003F
S1130170D1020000D10200000000000000000000D5
S1130180D1020000D1020000D1020000D10200001F
S113019000000000D1020000D1020000D1020000E2
S11301A0D1020000D1020000D1020000D1020000FF
S11301B0D1020000D1020000D1020000D1020000EF
S11301C0D1020000D1020000D1020000D1020000DF
S11301D0D1020000D1020000D1020000D1020000CF
S11301E0D1020000D1020000D1020000D1020000BF
S11301F0D1020000D1020000D1020000D1020000AF
S1130200D1020000D1020000D1020000D10200009E
S1130210D1020000D1020000D1020000D10200008E
S1130220D1020000D1020000D1020000D10200007E
S1130230D1020000D1020000D1020000D10200006E
S1130240D1020000D1020000D1020000D10200005E
S1130250D1020000D1020000D1020000D10200004E
S1130260D102000010B5054C237833B9044B13B107
S11302700448AFF300800123237010BD440800201C
S113028000000000A82300000C4B43B10C480D49AA
S113029010B5AFF300800C48036823B910BD0A48B9
S11302A0036833B97047094B002BF7D0BDE8104001
S11302B01847064B002BF5D0184700BF000000007C
S11302C0A823000048080020A82300000000000024
S11302D0FEE7000008B5104B104A9A4209D00E4BB5
S11302E00E4A03E011681960043304320C498B424E
S11302F0F8D30C4B02E000221A6004330A4A9342FA
S1130300F9D30A4A0A4B23F07F039360094B9847B9
S1130310094B9847FEE700BF00000020A823000017
S11303204408002044080020C008002000ED00E03C
S1130330000000006D06000081050000034B044A24
S11303409A62A2F580729A62704700BF00800041F1
S113035000020152184A536943F480535361174B06
S11303604022C3F89C204322C3F88C20012203F5C9
S1130370A0531A60124BDB6913F0010FFAD1104B32
S1130380104A1A605A686FF302025A604FF6AC7250
S11303909A814FF440325A60094BDB6913F0040F21
S11303A0FAD1074A136843F002031360044BDB6974
S11303B013F0020FFAD1704700080040001C0040FF
S11303C0003000400400104010B40C4B1B7E13F0AE
S11303D0010FFAD00022845C084B9C62074B1B7E01
S11303E013F0010FFAD001328A42F4D3034B1B7E7F
S11303F013F0020FFAD0104610BC704700300040D2
S11304000022064B1B7E13F0040FFAD0034B9B6AA9
S1130410835401328A42F4D31046704700300040BE
S113042010B4504B1A88052161F30B221A804E48F0
S113043003784E4B9A8A012161F34E329A829C8A48
S113044044F004029A829C8A44F008029A829C8AAC
S113045044F080029A829C8A44F040029A829A8AEA
S11304606FF30A229A829C8A44F002029A829A7D4D
S11304706FF382029A759A7D6FF341029A759A7DA1
S11304806FF300029A75DA7D6FF30002DA7540F2B9
S11304900513C362364B9A6B61F31A429A639A6BE3
S11304A06FF3CF329A639A6B42F400629A639A6B49
S11304B06FF30A229A639A6B61F347129A639A6BF9
S11304C042F010029A632B4A5A6393F830206FF378
S11304D0C71283F8302093F8302042F0400283F8AA
S11304E0302093F8302042F0020283F83020204B71
S11304F01B6C13F0020FFAD01B4940F207130B6276
S11305001B4B93F8202042F0010283F8202093F83B
S1130510202042F0800283F820201A7F42F0020259
S11305201A771A7F6FF3C7121A771A7F42F04002C4
S11305301A774FF483738B6242F207130B620A4BF0
S11305405B6813F0040FFAD10B4A074B5A62064B4F
S11305505B6813F0080FFAD10122084B5A7110BCE2
S1130560704700BF00400041001C004000140040E0
S1130570001000404D0E03000721640000080040F5
S113058008B5084B9847084B9847084B9847084BC1
S1130590984705210748084B98470848084B98474F
S11305A0FEE700BF21040000550300003D030000E6
S11305B0C505000068230000C90300007023000083
S11305C0F507000038B5054D2B6800219868044CE8
S11305D0A0472B6800215868A04738BD00000020C0
S11305E00508000058B908B50B4611461846054BD6
S11305F09847002800DB08BD4FF0FF3008BD4FF0DE
S1130600FF30704701040000013802280BD808B5F8
S11306100B4611461846054B9847002800DB08BDD9
S11306204FF0FF3008BD4FF0FF307047C9030000A2
S11306300346064A126822B1044A10680344136050
S113064070470349014A1160F6E700BF60080020C3
S1130650C0C800204FF0FF3070474FF400534B6088
S113066000207047012070470020704770B50F4E7E
S11306700F4D761BB61018BF002405D0013455F871
S1130680043B9847A642F9D10A4E0B4D761B01F064
S113069079FEB61018BF002406D0013455F8043B87
S11306A09847A642F9D170BD70BD00BF90230000E9
S11306B090230000982300009023000070B4860764
S11306C046D0541E002A41D0CAB2034602E014F1B7
S11306D0FF343BD303F8012B9D07F8D1032C2ED90B
S11306E0CDB245EA05250F2C45EA054519D903F194
S11306F010022646103E0F2E42F8105C42F80C5CA5
S113070042F8085C42F8045C02F11002F2D8A4F149
S1130710100222F00F0204F00F041032032C1344D1
S11307200DD91E462246043A032A46F8045BFAD839
S1130730221F22F003020432134404F003042CB1F8
S1130740C9B21C4403F8011B9C42FBD170BC704726
S113075014460346C2E700BFF0B5054689B0084613
S11307600C4600F02DF9AB6B214F04940126441C78
S113077004A9022203940590AC6806970796019198
S1130780029253B3636E13F0010FB4F90C309AB2B2
S113079001D1900525D5910406D4626E43F400532B
S11307A022F40052A3816266284601AA214600F081
S11307B069FC636E00280CBF0A254FF0FF35DA0789
S11307C002D4A3899B0502D5284609B0F0BDA06DCB
S11307D000F000FE284609B0F0BD284600F0CAFA31
S11307E0D0E7A06D00F0F4FDB4F90C309AB2D2E772
S11307F080230000024B01461868FFF7ADBF00BF1D
S11308000000002000290CBF022200224FF4806364
S113081000F000B82DE9F043614C256883B004462C
S11308200F4690461E4615B1AB6B002B64D0B8F151
S1130830020F06D0B8F1010F00F29F80002EC0F223
S11308409C80636ED80734D52146284600F03AFAD6
S1130850216B41B104F14003994202D0284600F0D3
S11308602BFB00232363B4F90C300022A2616260E5
S11308701A063AD423F44A6323F00303B8F1020FAF
S1130880A3811DD001AB6A462146284600F0A4FD91
S1130890A3891843A081002E32D1009E304600F077
S11308A013FE074600286BD0A38943F08003A3817D
S11308B028E0A3899905C7D4A06D00F089FDC3E79A
S11308C00025616E002604F1430243F00203012077
S11308D0A660CE07A38122602261606101D49805DD
S11308E03ED5284603B0BDE8F0832169284600F0D0
S11308F0E3FAB4F90C30BDE7284600F03BFA96E77A
S1130900002FCBD0AB6B002B33D0009BB4F90C2061
S113091027609E421CBF42F40062A281B8F1010F1D
S113092004BF42F00102A28192B212F008032761CF
S113093066610ED0D1071AD5656E7642002315F094
S11309400105A661A36009D00025284603B0BDE8CF
S1130950F083A360656E15F00105F5D19305C0D44D
S1130960A06D00F037FD284603B0BDE8F083A66013
S1130970F0E7284600F0FEF9C7E74FF0FF35B0E78F
S1130980DDF80090B14504D0484600F09DFD0746CF
S113099020B9B4F90C304FF0FF3592E74E4683E7A7
S11309A00000002000000000000000000000000023
S11309B00000000000000000000000000000000033
S11309C090F800F06DE9024520F007016FF0000C8B
S11309D010F0070491F820F040F049804FF0000433
S11309E06FF00700D1E9002391F840F000F108000E
S11309F082FA4CF2A4FA8CF283FA4CF3A2FA8CF346
S1130A004BBBD1E9022382FA4CF200F10800A4FAAC
S1130A108CF283FA4CF3A2FA8CF3E3B9D1E9042300
S1130A2082FA4CF200F10800A4FA8CF283FA4CF337
S1130A30A2FA8CF37BB9D1E9062301F1200182FAF1
S1130A404CF200F10800A4FA8CF283FA4CF3A2FAF7
S1130A508CF3002BC6D0002A04BF04301A4612BA05
S1130A60B2FA82F2FDE8024500EBD2007047D1E908
S1130A70002304F00305C4F100004FEAC50514F097
S1130A80040F91F840F00CFA05F562EA05021CBF68
S1130A9063EA050362464FF00004A9E738B5304B1A
S1130AA01B6805460C4613B19A6B002A38D0B4F97A
S1130AB00C2093B218070CD52069A8B113F00102D9
S1130AC01ED0636900225B42A361A260F0B10020E2
S1130AD038BDD9063CD5580726D4206942F008030E
S1130AE0A3819BB20028E9D103F42072B2F5007F00
S1130AF0E4D02846214600F09DFCA3892069DDE767
S1130B00990758BF6269A2600028E0D1B4F90C309B
S1130B101A06DDD543F04003A3814FF0FF3038BD02
S1130B20184600F027F9C2E7216B51B104F14003E4
S1130B30994204D0284600F0BFF9B4F90C200023F0
S1130B40236300232069636022F024022060C5E748
S1130B5042F0400209232B604FF0FF30A28138BDE0
S1130B6000000020024B13B1024800F005B87047A2
S1130B7000000000E50D0000002301461A46184657
S1130B8001F0CABAB1F90C309AB22DE9F0410D4620
S1130B90110780463AD46A6843F40063002AAB81A3
S1130BA06FDDAC6A002C49D000229BB2D8F80060FB
S1130BB0C8F8002013F4805267D02A6D5F0705D56A
S1130BC069682B6B521A0BB1EB6BD21A0023E969DB
S1130BD04046A047441C3CD0B5F90C302A692A6031
S1130BE023F400630022AB81DB046A6047D4296BE1
S1130BF0C8F8006011B305F14003994202D04046A1
S1130C0000F05AF900202863BDE8F0812E69AEB1E6
S1130C102C682E6091070CBF6B690023A41BAB608A
S1130C200AE0234632466F6AE9694046B84700281D
S1130C30A4EB0004064404DD002CF2DC0020BDE833
S1130C40F081AB8943F04003AB814FF0FF30BDE846
S1130C50F081D8F800401D2CF3D8194BE340DB4356
S1130C6013F00103EDD1B5F90C206B6022F400639D
S1130C702969AB81DA042960B9D5002CB7D128657C
S1130C80B5E7EA6B002A8CDCD8E70123E969404622
S1130C90A047431C024602D0AB89AC6A8EE7D8F861
S1130CA00030002BF8D01D2B01D0162B02D1C8F830
S1130CB00060C3E7AB8943F04003AB81BDE8F0813A
S1130CC00100402038B50D46044608B1836BBBB122
S1130CD0B5F90C0088B16B6EDB0701D4810517D51B
S1130CE020462946FFF74EFF6B6EDA07044602D40E
S1130CF0AB899B0507D5204638BD0446204638BD40
S1130D0000F038F8E4E7A86D00F064FB204638BD35
S1130D10A86D00F05DFBE3E7014900F02BBB00BFC9
S1130D200122000010B5002304468181C2810360C2
S1130D30436083604366036143618361194608220B
S1130D405C30FFF7BBFC07480749084A084B2062A0
S1130D50E4616162A262E36204F15800BDE81040FC
S1130D6000F032BB6520000089200000C52000008F
S1130D70E520000010B50446124800F029FBA26BE0
S1130D80D2B904F53B731048C4F8E8320321C4F81F
S1130D90E022E063C4F8E41260680421FFF7C2FFB4
S1130DA001220921A068FFF7BDFF02221221E06899
S1130DB0FFF7B8FF0123A3630248BDE8104000F029
S1130DC009BB00BFA4080020190D0000014800F071
S1130DD0FFBA00BFB8080020014800F0FBBA00BF0A
S1130DE0B808002038B50A4C0A4D641BA4100AD078
S1130DF004F18043013B05EB8305013C55F80439BC
S1130E009847002CF9D1BDE8384001F0C5BA00BFBD
S1130E10A8230000A4230000F8B5244F0C4606467E
S1130E2000F05CFFBB685D68C4F57E610F3125F09E
S1130E300305294421F47F6121F00F01A1F58054B9
S1130E40B4F5805F07DB0021304601F0F9F8BB6898
S1130E502B44984204D0304600F046FF0020F8BDF1
S1130E606142304601F0ECF801300DD0104BBA6805
S1130E7019682D1B45F001053046091B55601960A2
S1130E8000F032FF0120F8BD0021304601F0D8F80F
S1130E90BA68831A0F2BDEDD064C0549246843F03B
S1130EA00103001B53600860D5E700BF3404002031
S1130EB0640800203C080020002944D02DE9F041BA
S1130EC00D46804600F00AFF55F8047C694927F076
S1130ED00103A5F10804E2188E685068B24220F0BC
S1130EE003005ED0FE0750600BD455F8087CE41B69
S1130EF001F1080EA56875453B446DD0E768EF60C5
S1130F00BD6015186D68ED073ED543F001026260BF
S1130F10E350B3F5007F17D2DB08581C9A104D68D4
S1130F2051F83070A7600123934001EBC0022B43BA
S1130F30083AE2604B6041F83040FC604046BDE84E
S1130F40F04100F0D1BE70475A0A042A52D89A09D7
S1130F5002F13907FF0002F13805C819CA590838E7
S1130F6090424FD0516821F003018B4232D29268F3
S1130F709042F7D1C368A060E3609C60C4604046BF
S1130F80BDE8F04100F0B0BE95683B4FBD4203445C
S1130F9040D0D068E86043F0010285606260E350AD
S1130FA0B7E7FF07034407D455F8082CA41A1344E1
S1130FB0A068E268C2609060304A126843F00100A1
S1130FC0934260608C60B9D32D4B40461968FFF79B
S1130FD023FFB3E71046CDE711184968C90744D485
S1130FE09168D268CA60034443F001009160606074
S1130FF0E350A3E7142A16D802F15C07FF0002F1BC
S11310005B05AAE7AA1001234D6893402B434B606C
S11310100346B0E743F001024C610C61E560A56052
S11310206260E3508AE7542A06D81A0B02F16F076C
S1131030FF0002F16E0590E7B2F5AA7F06D8DA0B3D
S113104002F17807FF0002F1770586E740F2545079
S1131050824206D89A0C02F17D07FF0002F17C055A
S11310607BE74FF47E777E2577E743F001016160EB
S1131070136063E7340400203C040020400800208F
S1131080940800209368002B73D02DE9F04F8B89CE
S113109083B00C4619070090164626D5226922B360
S11310A013F0020035682CD04FF00009B04FC84649
S11310B0B246B84543464A4628BF3B460098B8F175
S11310C0000F50D0E169666AB047002858DDDAF8AD
S11310D008301B1A8144A8EB0008CAF80830002B1A
S11310E0E7D1002003B0BDE8F08F21460098FFF758
S11310F0D5FC002840F03381A389356813F0020041
S1131100D2D113F0010945D14F46019637B39A0560
S1131110D4F8088040F183804745C346C0F0AB80D3
S113112013F4906F40F0AC802068BA465A464946A2
S113113000F070FDA2682368A2EB08025B44A26081
S11311402360019A9368A3EB0A03D144A7EB0A072F
S11311509360002BC5D0A389002FD8D1D5F8009077
S11311606F680835D2E7D5F80090D5F804800835C3
S11311709FE70020704721460098FFF7A3FD70B356
S1131180B4F90C3043F040034FF0FF30A38103B0B7
S1131190BDE8F08F814633464E46A8469A464D46F2
S11311A04EB380B3206823696269B145CB4628BF3A
S11311B0B34698425F4604D9A36813449B4500F3A1
S11311C0A68093454BDB1346676AE16900982A467B
S11311D0B847071ED4DDB9EB0709CCD00120DAF8F3
S11311E00830DB1B3D44F61BCAF80830002B3FF4E3
S11311F078AF002ED5D108F1080313E960009846B2
S11312000833002EF9D032460A21284600F018FC93
S1131210002800F0A1800130A0EB0509C2E7206896
S11312202369984202D863699F425DD2B84528BFBA
S1131230B8464246494600F0EDFCA3682268A3EB99
S113124008034244A36022600BB1C24679E72146F9
S11312500098FFF737FD002892D1C24671E75A463D
S1131260294600F0D7FCA2682368A2EB0B025B447A
S1131270A2602360AFE72068B846BA46BB4655E78C
S113128062692068216902EB4208A0EB010A08EBBD
S1131290D8780AF101004FEA6808384440454246CC
S11312A084BF804642465B0544D51146009800F051
S11312B013F98346002855D05246216900F010FCEA
S11312C0A38923F4906343F08003A3810BEB0A000A
S11312D0A8EB0A03C4F810B0C4F814802060A3601B
S11312E0B846BA46BB4621E76FF00041B94228BF71
S11312F039464A4691FBF3F10098666A03FB01F311
S1131300E169B047B0F1000A3FF71BAF38E71A466E
S11313102946019300F07EFC2268019B00981A4440
S113132022602146FFF7CEFC019B00287FF428AF02
S11313301F4650E7009800F0DDFC83460028C5D125
S1131340009D21692846FFF7B7FDB4F90C300C2243
S113135023F080032A6015E706F1010922E74FF024
S1131360FF30BFE6009A0C231360B4F90C3009E790
S113137000FCFF7F2DE9F84310F538771FD088462D
S113138006464FF000097D68BC68013D11D4A3896D
S1131390012B05F1FF3508D9B4F90E30013321468C
S11313A0304602D0C04749EA00096B1C04F16804C6
S11313B0EDD13F68002FE6D14846BDE8F883B94631
S11313C04846BDE8F88300BF704700BF704700BFC0
S11313D0704700BF704700BF70B50C46B1F90E10DE
S11313E0002990B015461E4614DB01AA00F06AFFDE
S11313F000280FDB029A02F47042A2F50052B2FAFE
S113140082F252094FF480634FF4006032602B6023
S113141010B070BDA289002312F08000336004D0A4
S1131420402218462A6010B070BD4FF480632B60D0
S113143010B070BD8A8992070B4606D501F14302AC
S113144001211A601A6159617047F0B583B001AB8C
S11314506A460C460646FFF7BFFF0099054630462C
S113146000F03AF8B4F90C30D8B1019A154F00994C
S1131470F76343F08003A3812060206161611AB99E
S11314802B43A38103B0F0BD3046B4F90E1000F035
S11314902DFFA0B1A38923F0030343F001031BB282
S11314A0EEE79A05EED423F0030304F1430243F07C
S11314B002030121A381226022616161E2E7B4F9A0
S11314C00C30DDE7190D0000024B0146186800F0EE
S11314D003B800BF000000202DE9F04F01F10B0616
S11314E0162E83B0054640F29E8036F0070600F1C2
S11314F0BD80B14200F2BA8000F0F0FBB6F5FC7F8B
S1131500C0F09382730A00F0B880042B00F2798152
S1131510B30903F1390003F1380EC300BF4F3B4454
S1131520A3F108015C68A14206D10CE0002A80F214
S1131530AA80E468A14206D0636823F003039A1BDF
S11315400F2AF3DD70463C69DFF8E4E2744500F0ED
S1131550AB81636823F003039A1B0F2A00F3908185
S1131560002AC7F814E0C7F810E080F29D80B3F5B4
S1131570007F80F06181DB0803F1010C99107A6827
S113158057F83C80C4F8088001238B4007EBCC015A
S113159013430839E1607B6047F83C40C8F80C40CD
S11315A08210012494409C4200F28B801C4206D19C
S11315B020F0030064001C4200F10400FAD007EBA1
S11315C0C009CC468046DCF80C309C4507D16DE15F
S11315D0002A80F27B81DB689C4500F067815968B2
S11315E021F003018A1B0F2AF2DDD3F80CC0D3F8D3
S11315F0088000939C19284646F0010642F0010534
S11316005E60C8F80CC0CCF808807C613C61C4F80A
S11316100CE0C4F808E065605A5000F065FB009BDC
S113162003F108041EE0102920D800F057FB10260F
S113163018230220794F3B44A3F108025C689442CA
S113164000F03D816368E168A66823F00303234446
S113165028465A68F16042F001028E605A6000F038
S113166043FB0834204603B0BDE8F08F00240C236C
S113167020462B6003B0BDE8F08F40204FF4007388
S11316804FF03F0E4AE72344E1685A68A66842F0E7
S11316900102F16028468E605A6000F025FB083490
S11316A0204603B0BDE8F08F234428465A6842F030
S11316B001025A6000F018FB0834204603B0BDE86C
S11316C0F08FBC68636823F00308B04504D3A8EB2B
S11316D006030F2B00F38580DFF85891504BD9F89F
S11316E000201B680132334404EB080A00F05581E2
S11316F003F580530F3323F47F6B2BF00F0B594604
S1131700284600F09DFC411C024600F0FC80824506
S113171000F2F780434B19685944196000F04D8179
S1131720D9F8000001301BBFA2EB0A0A5144C9F8E2
S11317300020196012F0070100F01581C1F10800C2
S1131740C1F580510244083102EB0B09C9F30B09BE
S1131750A1EB0909494628460193009200F070FC68
S1131760431C9DE80C0000F04381801A484440F07B
S113177001001968BA604944BC425060196017D02E
S1131780B8F10F0F40F2FB806068A8F10C0222F060
S1131790070204EB020E00F001004FF0050C1043A9
S11317A00F2A6060CEF804C0CEF808C000F217819A
S11317B01D4BBC681A68914288BF19601B4B1A689C
S11317C09142626888BF196022F003029642A2EB3C
S11317D0060301D80F2B04DC284600F085FA002408
S11317E040E7A21943F0010346F00106666028466B
S11317F0BA60536000F078FA0834204603B0BDE8BC
S1131800F08F142B71D9542B00F2A380330B03F106
S11318106F0003F16E0EC30080E600BF34040020A5
S113182094080020640800208C0800209008002000
S11318303C0400203C0800205A0A042A5BD9142ADC
S113184000F2AE8002F15C01C9005B3207EB010CCF
S11318507958ACF1080C8C4500F088804A6822F075
S11318600302934273D289688C45F7D1DCF80C20CB
S11318707B68E260C4F808C09460CCF80C408FE642
S1131880A11946F0010C42F00106C4F804C0284630
S113189079613961C1F80CE0C1F808E04E60E250AA
S11318A000F022FA0834DDE67B6879E608F10108E5
S11318B018F0030F0CF1080C7FF485AE2DE0DC6802
S11318C0A34208BF02303FF43EAEBBE619441C46B7
S11318D04A68DB6854F8086F42F001024A602846FF
S11318E0F3609E6000F000FABCE603F15C0003F1D3
S11318F05B0EC30012E69A0902F13901C9003832BD
S1131900A4E7BC4254D0BC68626822F003025DE7DD
S113191059F80839994540F0868010F0030F00F11A
S1131920FF30F5D17B6823EA04037B6064009C42AA
S11319303FF6C7AE002C3FF4C4AE1C4240467FF4D1
S11319403EAE64001C4200F10400FAD037E68C4637
S11319508CE7B3F5AA7F15D8F30B03F1780003F1F4
S1131960770EC300DAE54FF48051EDE67B68921000
S1131970012101FA02F213437B60624679E70123F5
S1131980536029E740F25452934222D8B30C03F136
S11319907D0003F17C0EC300C0E503F1100BAEE63D
S11319A0542A29D81A0B02F16F01C9006E324DE78F
S11319B0204B196859441960B2E6CAF30B00002899
S11319C07FF4AEAE08EB0B03BA6843F00103536037
S11319D0EEE67F204FF47E734FF07E0E9EE504F119
S11319E0080128460093FFF767FA009B1968DFE6B1
S11319F001204FF00009BCE6B2F5AA7F05D8DA0B46
S1131A0002F17801C900773220E740F254518A424A
S1131A1005D89A0C02F17D01C9007C3216E74FF417
S1131A207E717E2212E77B6880E7F00806F10803E6
S1131A3000E600BF64080020000000000000000071
S1131A4001F0FF01102A2BDB10F0070F08D010F86B
S1131A50013B013A8B422DD010F0070F42B3F6D16F
S1131A60F0B441EA012141EA014122F007047FF088
S1131A7000070023F0E80256083C85EA010586EADF
S1131A80010685FA47F5A3FA87F586FA47F6A5FA1B
S1131A9087F68EB9EED1F0BC01F0FF0102F0070227
S1131AA032B110F8013B013A83EA010313B1F8D1D2
S1131AB00020704701387047002D06BF35460338B3
S1131AC0073815F0010F07D1013015F4807F02BFEC
S1131AD0013015F4C03F0130F0BC0138704700BF3D
S1131AE0844641EA000313F003036DD1403A41D325
S1131AF051F8043B40F8043B51F8043B40F8043BE4
S1131B0051F8043B40F8043B51F8043B40F8043BD3
S1131B1051F8043B40F8043B51F8043B40F8043BC3
S1131B2051F8043B40F8043B51F8043B40F8043BB3
S1131B3051F8043B40F8043B51F8043B40F8043BA3
S1131B4051F8043B40F8043B51F8043B40F8043B93
S1131B5051F8043B40F8043B51F8043B40F8043B83
S1131B6051F8043B40F8043B51F8043B40F8043B73
S1131B70403ABDD2303211D351F8043B40F8043B13
S1131B8051F8043B40F8043B51F8043B40F8043B53
S1131B9051F8043B40F8043B103AEDD20C3205D323
S1131BA051F8043B40F8043B043AF9D2043208D01B
S1131BB0D2071CBF11F8013B00F8013B01D30B888D
S1131BC003806046704700BF082A13D38B078DD06B
S1131BD010F003038AD0C3F10403D21ADB071CBF3D
S1131BE011F8013B00F8013B80D331F8023B20F8A7
S1131BF0023B7BE7043AD9D3013A11F8013B00F8E0
S1131C00013BF9D20B7803704B7843708B78837067
S1131C10604670478842F0B50DD98B1898420AD2B5
S1131C208418002A51D0224613F8014D02F8014DC0
S1131C309942F9D1F0BD0F2A48D941EA00039B0724
S1131C4046D100F1100401F11003154653F8106C4D
S1131C5044F8106C53F80C6C44F80C6C53F8086C92
S1131C6044F8086C103D53F8046C44F8046C0F2DD0
S1131C7003F1100304F11004E8D8A2F1100323F0D7
S1131C800F0302F00F0E1033BEF1030F1944034487
S1131C9021D91E1F0D467446043C55F8047B46F8B2
S1131CA0047F032CF8D8AEF1040424F003040434B4
S1131CB02144234402F0030262B1013B0A4411F8B7
S1131CC0014B03F8014F8A42F9D1F0BD0346F3E713
S1131CD00346F2E7F0BD7246EEE700BF0148FFF7A6
S1131CE077BB00BFA80800200148FFF773BB00BF03
S1131CF0A8080020002900F095802DE9F04F0D463A
S1131D00164683B0804606F10B07FFF7E7FF55F848
S1131D1004EC162F2EF00304A5F108093CD8102278
S1131D201746BE423DD8944243DAC44B996809EB46
S1131D300400884200F0B480436823F001010144A8
S1131D404968C9074CD51EF0010F00F09B8031464D
S1131D504046FFF7C1FB064600283AD055F8043C3C
S1131D6023F001034B44A0F108029A4200F02181C0
S1131D70221F242A00F20781132A00F2DB80034683
S1131D802A46116819605168596092689A60294618
S1131D904046FFF791F81CE027F00707002F3A466A
S1131DA0BFDA00260C233046C8F8003003B0BDE883
S1131DB0F08F2E46E31B0F2B1ED8D9F8043003F006
S1131DC0010323434C44C9F80430636843F001031E
S1131DD063604046FFF788FF304603B0BDE8F08FEC
S1131DE023F00303E11891421FDBC36882682E4687
S1131DF0D3600C469A60DDE7D9F8042009EB0701AB
S1131E0002F001024C4443F001031743C9F8047083
S1131E104B60636843F00103083163604046FFF799
S1131E204BF8D6E71146FFF757BB1EF0010F8ED1D2
S1131E3055F8081CA9EB010ADAF8041021F0030193
S1131E400B442344934225DBC26881685646CA602A
S1131E509160DAF80C1056F8080F221F242AC1608A
S1131E60886000F29480132A6FD92968CAF8081090
S1131E706968CAF80C101B2A00F2A28008350AF11E
S1131E80100263E055F8083CA9EB030ADAF80410E1
S1131E9021F0030163189342FFF659AF5646D8E781
S1131EA0416821F0030BA34407F11000834556DA7F
S1131EB01EF0010F7FF44BAF55F8081CA9EB010A83
S1131EC0DAF8041021F003018B445845E2DC56464D
S1131ED0DAF80C1056F8080F221F242AC160886013
S1131EE000F28F80132A40F28A802968CAF8081009
S1131EF06968CAF80C101B2A00F28A8008350AF1B6
S1131F0010022968116069685160A96891600AEB40
S1131F100701ABEB070242F0010299604A60DAF86C
S1131F20043003F001031F434046CAF80470FFF76E
S1131F30DBFE51E72B6803606B6843601B2A2DD8D6
S1131F4000F1080305F108021BE732462968116015
S1131F5069685160A96891601C46D1462AE709EB7B
S1131F600701ABEB070B4BF0010299604A6055F88F
S1131F70043C03F001031F43404645F8047CFFF78B
S1131F80B3FE2E4628E72946FFF744FEFFE629461E
S1131F9030461C46D146FFF73DFE0BE7AB68836035
S1131FA0EB68C360242A17D000F1100305F1100276
S1131FB0E7E650F8043C23F003031C442E46F9E6FC
S1131FC0A968CAF81010E968CAF81410242A0CD0B9
S1131FD010350AF11802B9E72B6903616B69436193
S1131FE005F1180200F11803CBE62A69CAF8182093
S1131FF06A69CAF81C2018350AF12002A6E732469D
S11320007FE7294630460193FFF704FE019B7EE7F4
S1132010A968CAF81010E968CAF81410242A03D071
S113202010350AF118026CE72A69CAF818206A699F
S1132030CAF81C2018350AF1200262E73404002093
S113204038B5074C0023054608462360FEF7F0FA2E
S1132050431C00D038BD2368002BFBD02B6038BD57
S1132060BC08002010B50C46B1F90E1000F066F95A
S1132070002803DB236D0344236510BDA38923F4E7
S11320808053A38110BD00BF2DE9F0411646B1F97C
S11320900C201F46D3050C46054607D50022022313
S11320A0B1F90E1000F034F9B4F90C20B4F90E10A3
S11320B022F48052A2813B4632462846BDE8F041D4
S11320C000F014B810B50C46B1F90E1000F020F968
S11320D0A389421C0EBF23F4805343F4805320652C
S11320E0A38110BDB1F90E1000F078B870B50D469B
S11320F0084C114606461A46284600232360FEF77C
S113210083FA431C00D070BD2368002BFBD03360DE
S113211070BD00BFBC0800202DE9F8432C4D0646D5
S1132120286898460F469146FFF752F9294B1C68D8
S1132130D4F84831002B3ED05A681F2A1CDC02F127
S1132140010E76B103EB82010124C1F88890D3F823
S1132150880194402043022EC3F88801C1F8088105
S113216023D00232C3F804E0286843F82270FFF752
S113217031F90020BDE8F883174B0BB34FF4C87056
S1132180FFF7A2F90346D8B1D4F848210260002130
S113219041600A46C4F848014FF0010EC0F88811A6
S11321A0C0F88C11002EDCD0CCE7D3F88C110C4392
S11321B0C3F88C41D5E704F5A673C4F84831BBE7EE
S11321C02868FFF707F94FF0FF30BDE8F88300BF38
S11321D0300400207C230000C914000038B5074CEB
S11321E00023054608462360FEF734FA431C00D05A
S11321F038BD2368002BFBD02B6038BDBC08002001
S113220070B559B105460C4610B1836B002B3CD018
S1132210636ED80705D5B4F90C302BB900263046C7
S113222070BDA38999053CD521462846FEF7AAFC32
S1132230E36A064633B1E169284698470028B8BFE7
S11322404FF0FF36A3891A0622D4216B41B104F161
S11322504003994202D02846FEF72EFE0023236352
S1132260616C21B12846FEF727FE00236364FEF764
S1132270ADFD636E0022DB07A2810ED5A06DFFF7D2
S1132280A5F8FEF7A9FD304670BDFEF773FDBFE764
S113229021692846FEF710FED7E7A06DFFF79AF8EC
S11322A0ECE7A06DFFF794F8B4F90C30002BBBD128
S11322B0666E16F00106B1D1A06DFFF78BF83046BB
S11322C070BD00BF38B50B46074C0546114618468D
S11322D000232360FEF7C1F9431C00D038BD2368F6
S11322E0002BFBD02B6038BDBC08002038B5074C50
S11322F00023054608462360FEF7B4F9431C00D0CA
S113230038BD2368002BFBD02B6038BDBC080020EF
S113231070B50D46084C114606461A462846002359
S11323202360FEF7A1F9431C00D070BD2368002B85
S1132330FBD0336070BD00BFBC08002070B50D46F3
S1132340084C114606461A46284600232360FEF729
S113235049F9431C00D070BD2368002BFBD03360C7
S113236070BD00BFBC08002068656C6C6F00000085
S11323707468697320776F726B7300000800002023
S11323800A000000F8B500BFF8BC08BC9E467047C0
S1132390650B000089020000F8B500BFF8BC08BC5A
S10B23A09E467047650200002F
S11323A8080000200000000000000000F4020020E3
S11323B85C030020C40300200000000000000000AB
S11323C80000000000000000000000000000000001
S11323D800000000000000000000000000000000F1
S11323E800000000000000000000000000000000E1
S11323F800000000000000000000000000000000D1
S113240800000000000000000000000000000000C0
S113241800000000000000000000000000000000B0
S113242800000000000000000000000000000000A0
S11324380000000000000000000000000000000090
S11324480000000000000000000000000000000080
S113245801000000000000000E33CDAB34126DE61D
S1132468ECDE05000B000000000000000000000086
S11324780000000000000000000000000000000050
S11324880000000000000000000000000000000040
S11324980000000000000000000000000000000030
S11324A80000000000000000000000000000000020
S11327D898080020000000000000000034040020D5
S11327E8340400203C0400203C040020440400205D
S11327F8440400204C0400204C040020540400200D
S1132808540400205C0400205C04002064040020BC
S1132818640400206C0400206C040020740400206C
S1132828740400207C0400207C040020840400201C
S1132838840400208C0400208C04002094040020CC
S1132848940400209C0400209C040020A40400207C
S1132858A4040020AC040020AC040020B40400202C
S1132868B4040020BC040020BC040020C4040020DC
S1132878C4040020CC040020CC040020D40400208C
S1132888D4040020DC040020DC040020E40400203C
S1132898E4040020EC040020EC040020F4040020EC
S11328A8F4040020FC040020FC040020040500209B
S11328B8040500200C0500200C0500201405002048
S11328C8140500201C0500201C05002024050020F8
S11328D8240500202C0500202C05002034050020A8
S11328E8340500203C0500203C0500204405002058
S11328F8440500204C0500204C0500205405002008
S1132908540500205C0500205C05002064050020B7
S1132918640500206C0500206C0500207405002067
S1132928740500207C0500207C0500208405002017
S1132938840500208C0500208C05002094050020C7
S1132948940500209C0500209C050020A405002077
S1132958A4050020AC050020AC050020B405002027
S1132968B4050020BC050020BC050020C4050020D7
S1132978C4050020CC050020CC050020D405002087
S1132988D4050020DC050020DC050020E405002037
S1132998E4050020EC050020EC050020F4050020E7
S11329A8F4050020FC050020FC0500200406002096
S11329B8040600200C0600200C0600201406002043
S11329C8140600201C0600201C06002024060020F3
S11329D8240600202C0600202C06002034060020A3
S11329E8340600203C0600203C0600204406002053
S11329F8440600204C0600204C0600205406002003
S1132A08540600205C0600205C06002064060020B2
S1132A18640600206C0600206C0600207406002062
S1132A28740600207C0600207C0600208406002012
S1132A38840600208C0600208C06002094060020C2
S1132A48940600209C0600209C060020A406002072
S1132A58A4060020AC060020AC060020B406002022
S1132A68B4060020BC060020BC060020C4060020D2
S1132A78C4060020CC060020CC060020D406002082
S1132A88D4060020DC060020DC060020E406002032
S1132A98E4060020EC060020EC060020F4060020E2
S1132AA8F4060020FC060020FC0600200407002091
S1132AB8040700200C0700200C070020140700203E
S1132AC8140700201C0700201C07002024070020EE
S1132AD8240700202C0700202C070020340700209E
S1132AE8340700203C0700203C070020440700204E
S1132AF8440700204C0700204C07002054070020FE
S1132B08540700205C0700205C07002064070020AD
S1132B18640700206C0700206C070020740700205D
S1132B28740700207C0700207C070020840700200D
S1132B38840700208C0700208C07002094070020BD
S1132B48940700209C0700209C070020A40700206D
S1132B58A4070020AC070020AC070020B40700201D
S1132B68B4070020BC070020BC070020C4070020CD
S1132B78C4070020CC070020CC070020D40700207D
S1132B88D4070020DC070020DC070020E40700202D
S1132B98E4070020EC070020EC070020F4070020DD
S1132BA8F4070020FC070020FC070020040800208C
S1132BB8040800200C0800200C0800201408002039
S1132BC8140800201C0800201C08002024080020E9
S1132BD8240800202C0800202C080020FFFFFFFFF9
S1072BE800000200E3
S9030000FC
